:100000007370043073104030970100109381817F2A
:1000100017210010130101FF97120000938202EFD5
:1000200017030010130303FE97030010938383FD4F
:100030006359730003AE02002320C3019102110330
:10004000C5BF970200109382E2FB17130010130341
:10005000E30263D6620023A002009102DDBF2120EB
:1000600073005010F5BF197186DEEF001060612932
:1000700019C1A12D01A0080811270D27894763F494
:10008000A700E9257DF5A2DC112F8D4763E1A702CA
:1000900061641304F469012F02D8C257E34DF4FEE2
:1000A000C25785073ED8C257E35CF4FEEDB705653D
:1000B00081468A851946130585EB692E08181306B3
:1000C00000048145EF00F05A05650C1881461306BF
:1000D000F003130585ECBD2E056599679387B7A4DA
:1000E0002C00854621461305C5EC3EC402C69D265C
:1000F00045B7397126DAB704001022DC9384040076
:10010000056426943C5006DEE1CB9C4BF1C74AD8EF
:100110004ED652D4B2892E8A2A8905479146700854
:100120008145094582975DE98356C1011307F07F38
:100130009387F6FFC207C183636DF7083C50D1CBAC
:100140009C4BC1CB37180010130608860547814524
:1001500009458297AA8759E1835604860356248667
:1001600041677D17B18E6396E60683458486034614
:1001700094868346448603475486238EB404A38D15
:10018000C404238DD4042300E900834574860356F8
:100190000486371800100D8E23A0C90011EA4259B9
:1001A000B259225AF2506254D2543E852161828063
:1001B000130808862AC6C2955285EF00D04CB24774
:1001C000F25062544259B259225AD2543E852161AA
:1001D00082804259B259225AF557E9B74259B25969
:1001E000225AE957C1B7411122C437040010130441
:1001F00004008347840526C2617706C6B374E50010
:1002000081C77C48638297064AC005692299832783
:100210000906A5C7DC47B5C313D68400C1651376AC
:100220000608A9050545829731E583270906B1C768
:10023000DC47A1C713D60401C1651376F60FAD05DF
:100240000545829705E98327090685CBDC4795C7D5
:10025000C165B10513D684010545829701ED0249B8
:10026000854764C8230CF4040145B24022449244FB
:100270004101828002496955CDBF02497555F5B7E4
:10028000011122CC26CA06CEAE842A84A93F11C50C
:10029000F2406244D24405618280B717001083A700
:1002A00007069DC79C4B8DC793150401A166C181AC
:1002B0000547D58D3A8591467000829701E9B2478E
:1002C000F24062449CC0D244056182806955C9B73E
:1002D00075557DBF130101DC232821233709001048
:1002E0001309090003270900232E1122894763FF00
:1002F000E7148357E90523263123232441232322AE
:100300005123232C8122232A91222AD032D21397DF
:100310000701AE8AB289368A8507639B060E13678A
:1003200007023AD4231FF90402D6370400103146DD
:10033000814513050406EF00D033034799059387E1
:10034000C901C207C183B14693C5F7FF1306170061
:1003500093840901A30209062310F9062311B906A3
:100360002302E906A30CC904A303D906DDEC8564C6
:10037000CA94BC50F1CFDC4BE1CF9386F901130650
:100380000406F19A054781450945829755ED130406
:10039000400601A8BC5081C7DC5791C382977D14E9
:1003A00051CC70080C101305B101A133AA87054583
:1003B000F5F30347B10179FF0357E9058356A1021D
:1003C0007D17E399E6FC325725EF3347AA00B33691
:1003D0005001758F01CF638B0900125663E4C90683
:1003E00056850C183EC6EF00102AB247032481231D
:1003F000832441238329C122032A8122832A412283
:100400008320C123032901233E8513010124828017
:10041000136727023AD4231FF90402D619D6E386BC
:1004200005F00818EF00302609B7370500102686BA
:100430000C101305C506EF00102515BFF9577DB741
:10044000FD576DB74E8669BFE9574DB7E1574DBFB0
:10045000F55769BF69712324811223229112232049
:100460002113B284232E3111232C41112326111282
:10047000AE8936842A8AEF009022130615003309CC
:1004800096009307001063EE2707D285080832C450
:10049000EF00701F134714009307641099C063970F
:1004A0000902A2864A860C083E852D352A848320BF
:1004B000C1122285032481128324411203290112CF
:1004C0008329C111032A81115561828022463EC6CB
:1004D000CE8593070601338A2700268652853AC4C3
:1004E000EF00701A3245A2864A860C08E5332A844A
:1004F0005DFD22474DDF2686D2854E85EF00B01880
:100500007DB771546DB76300051C79714ECE0566D9
:10051000B709001022D4130646062A8481451385A4
:10052000090026D206D6EF00D0141C40938909009A
:100530008564CE94A0D023A00900638B0716829710
:1005400063110518A0504AD05C4C89C785452E859B
:100550008297A050130930061306B1008D4501455E
:1005600019CC1C4489CB829709E58347B100898B5C
:1005700081EFA05009C45C54054591C38297630B79
:100580000912A0507D19C9BF63060912BC50984FCB
:1005900011CF9305000405450297BC509305002038
:1005A00009459C4F8297BC5063890710DC476386DE
:1005B0000710C165B9052146054582971304400619
:1005C00009C94DA0BC5081C7DC5791C382977D14E7
:1005D00075C0BC50C1657000B9050545F9CF9C4791
:1005E000E9CF8297AA870545B5EF8347C10093F706
:1005F0000704E9DB6C001305003359312DE5B247E0
:1006000039671307C78C93960701C183C182BD8BDD
:1006100023A4F90023A2D9006391E60ABC5037074E
:100620003A0023A8E900D84F09C785450945029734
:10063000BC50130430061306B1008D45014599CF17
:10064000984709CB029709E58347B100918B9DE359
:10065000BC5089C7DC57054591C3829721CCBC505B
:100660007D14D1BF69550259B25022549254F249B7
:100670004561828021C0BC50A9C3DC479DCFC165C4
:10068000A105130600040545829769FDBC5095C776
:10069000DC4785C71D46914582971DE1B250225423
:1006A000854723A0F90002599254F249456182809E
:1006B0004AD059BD0259795545BF025975556DB794
:1006C0000259695555B775558280B7070010938751
:1006D0000700984311E382808566BE96B8524111A7
:1006E00006C615C30328C700630F080001469145DD
:1006F00001450298B717001093860700B852B70754
:10070000001093870700504F15C622C48145094544
:1007100002963714001093060400B852814505452F
:10072000584F029793060400B8522244B7070010AE
:1007300093870700584311C70297B70700109387A4
:100740000700B24023A0070041018280411122C46A
:10075000370400108327040006C60945637EF500B0
:10076000854601468145BD3601E591472320F400C9
:10077000B2402244410182806155DDBF11CDB705F1
:1007800000104111938545001306000206C6E52DB1
:10079000B24001454101828075558280B707001043
:1007A00003A507008280B7070010938707009443D2
:1007B0000947637ED7000567BA97BC53DC5381CBEA
:1007C000011106CE829709E5F240056182808280A0
:1007D000B715001070001305B10093850586113A16
:1007E000F24005618280930740063305F50241110E
:1007F0002AC6B2471387F7FF3AC699C70100B24726
:100800001387F7FF3AC6FDFB410182800DC961667F
:1008100041119306F5FF1306066AFD5532C6B2472D
:100820001387F7FF3AC699C70100B2471387F7FF4E
:100830003AC6FDFBFD16E393B6FE4101828082803D
:100840000145828001458280B71700102382070688
:100850008280B7E7008094C393DE260063830E0294
:1008600013932E00374E00803293330ECE40B28762
:1008700083A807003308FE00910723201801E3191D
:10088000F3FE13F83600630808028A0EB307D60198
:10089000931838000146014303C807008507331841
:1008A000C800210633630301E398C8FEB747008000
:1008B000BE9E23A06E0093777500370600041315C3
:1008C000A701F20713979500130606E093F6F61FAB
:1008D000C98FB7050080718F558FCD8FD98F930643
:1008E00050033727008014C3373700801CC3377785
:1008F00000801C43FDFFB7A600809C42B7B5008076
:100900001306803E99E39C41A9CB411132C6B24700
:100910001387F7FF3AC699C70100B2471387F7FF5D
:100920003AC6FDFB9C42FDF39C41EDF3B7C7008046
:100930009C43858BB9EFB7D700809C438D8BA1EB8F
:10094000B73700808843B567938707B07D8D33350F
:10095000A0003305A04041018280B7C700809C43BE
:10096000858B95E3B7D700809C438D8B99EFB73784
:1009700000808843B567938707B07D8D3335A0002D
:100980003305A0408280795582807D5582807D55D7
:10099000D9B77955C9B7370800049377750013089C
:1009A00008E0A605B3F505016A07F20713F8F61F7C
:1009B000D98F37E5008033E7050114C1D98F93053E
:1009C0005003372700800CC3373700801CC33767BC
:1009D00000801C43FDFFB7A500809C4137B8008014
:1009E0001305803E81E783270800D1CF41112AC635
:1009F000B2471387F7FF3AC699C70100B24713877A
:100A0000F7FF3AC6FDFB9C41FDF383270800E5F3A1
:100A1000B7C700809C43858BFDE7B7D700809C4318
:100A20008D8BE1EFB73700808C43B567938707B0B4
:100A3000FD8DE1E593D82600638208021395280016
:100A40003748008032953308C840B2873307F80032
:100A50001843910723AEE7FEE39AA7FE8D8A8DC265
:100A60008A08B7470080C69788438E06B3071601E9
:100A70003357B5002380E700A1058507E39AD5FE2B
:100A8000014541018280B7C700809C43858BA5EB5F
:100A9000B7D700809C438D8BADE7B73700808C4380
:100AA000B567938707B0FD8DA9ED93D826006382C3
:100AB0000802139528003748008032953308C84053
:100AC000B2873307F8001843910723AEE7FEE39A95
:100AD000A7FE8D8A8DC28A08B7470080C6978843D3
:100AE0008E06B30716013357B5002380E700A10532
:100AF0008507E39AD5FE014582807D5559B7795522
:100B000082807D5582807955ADBFB726008037370A
:100B1000008088C20CC3375700801C43FDFF37A5F7
:100B200000801C41E1659385056A93064006B1C3C8
:100B300041112EC6B2471387F7FF3AC699C7010085
:100B4000B2471387F7FF3AC6FDFBFD1685C21C416D
:100B5000EDF3B7C700809C43858B89EB09C6B73797
:100B600000809C431CC201454101828079554101AE
:100B70008280B7C700809C43858B81EB09C6B7375D
:100B800000809C431CC201458280795582801D896A
:100B9000B70700047205A605938707E0518DFD8D08
:100BA00001114D8DB7050080C98D700013054003FC
:100BB00006CEA13F09ED3245B567938707B07D8D1D
:100BC0003335A0003305A040F2400561828079559D
:100BD000E5BFB70700041D89A605938707E001114B
:100BE0007205FD8D22CCC98D32841305400370003F
:100BF00006CE213F09EDB24713D787001377B70C14
:100C000009EB2300F400F2406244056182807955CB
:100C1000DDBF7D55CDBF011122CC26CA2A84AE840A
:100C20007000930500401305400306CEF93D21ED09
:100C3000B24593D7850093F7B70CA1EB8547B397DF
:100C4000870095EC93C7F7FFFD8D13F5F50FB705FA
:100C5000008093850540C98D7000130540037535EC
:100C60001DE13245B567938707B07D8D3335A00010
:100C70003305A040F2406244D24405618280DD8D9C
:100C800013F5F50FE9B77955F5B77D55E5B79D47EC
:100C900063E7A708797122D4131485009307040130
:100CA00013F7F50FA6074ECED98FB709008026D2CD
:100CB0004AD0AE842A89B3E537017000130540039A
:100CC00006D6A13539E9B24713D787001377B70C99
:100CD00039E34504260493D784005D8C7000B36526
:100CE00034011305400315350DE9B24713D78700CA
:100CF0001377B70C0DE3371700109317190013077C
:100D00004706BA9723929700B25022549254025940
:100D1000F249456182807D55C5BF7955F5B77D554E
:100D20008280797126D2B71400105146138544068B
:100D3000814506D622D4352AB70700809C436166D8
:100D4000B71700809C431306066AA94632C0824743
:100D50001387F7FF3AC099C7010082471387F7FF4F
:100D60003AC0FDFBFD16FDF2014681450145713B90
:100D700061661306066AA9462DE932C292471387B7
:100D8000F7FF3AC299C7010092471387F7FF3AC2AB
:100D9000FDFBFD16FDF2700081451545BD3331E5C3
:100DA00061644AD04ECE1304046A13093006FD591B
:100DB0007000B785FF001545893B15E5B24763CD47
:100DC0000702A94722C422479306F7FF36C419C772
:100DD000010022479306F7FF36C47DFBFD17FDF3A4
:100DE0007D19E31739FD0259F2497954B250228531
:100DF0002254925445618280E30709FE70008145C8
:100E00000D4521336DF1B247C1759384440613D764
:100E10000701FD8D70001D452391E400FD312A84FA
:100E200079F18565938505E0700013054003F1397C
:100E300015E1B24713D787001377B70C01EFB71549
:100E4000008093F7C70F938525E07000DD8D1305B3
:100E500040036539B2502285225485472380F4002F
:100E60000259F2499254456182800565130545EDAA
:100E700082803307C500AA8711C68507A38FB7FEF6
:100E8000E31DF7FE828019CA2A96AA8703C70500C8
:100E900085078505A38FE7FEE31AF6FE8280834768
:100EA000050081CB814785073307F500034707001D
:060EB0007DFB3E858280FF
:100EB8006375725F657468657261646472000000CE
:100EC80076657200636F756E74727900220D00008A
:100ED80048080000D20B00008E0B000096090000A5
:100EE800520800008E0C0000160C0000400800009C
:100EF80044080000E60700000C080000000000009D
:00000001FF
